:020000040800F2
:100000000080012075610008D1600008D3600008FD
:10001000D5600008D7600008D96000080000000023
:100020000000000000000000000000006132000835
:10003000DB6000080000000001330008B92F000851
:10004000C5610008C5610008C5610008C5610008F8
:10005000C5610008C5610008C5610008C5610008E8
:10006000C5610008C5610008C5610008C5610008D8
:10007000C5610008C5610008C5610008C5610008C8
:10008000C5610008C5610008C561000800000000E6
:10009000000000000000000000000000C561000832
:1000A000C5610008C5610008DD600008C561000881
:1000B000C5610008C5610008C5610008ED60000861
:1000C000FD600008C5610008C5610008C561000841
:1000D000C5610008C56100080D610008000000004E
:1000E000C5610008C5610008C56100080000000086
:1000F000000000000000000000000000C5610008D2
:1001000000000000C5610008C5610008C561000865
:1001100000000000000000000000000000000000DF
:10012000C5610008C5610008C5610008C561000817
:10013000C561000800000000000000000000000091
:10014000000000000000000000000000C561000881
:10015000C5610008C5610008C5610008C5610008E7
:10016000C5610008C5610008000000000000000033
:10017000000000000000000000000000000000007F
:1001800000000000C5610008000000000000000041
:04019000C56100083D
:1001A00010B5054C237833B9044B13B10448AFF3B1
:1001B00000800123237010BDE0010020000000003A
:1001C000C07D000808B5034B1BB103490348AFF3DA
:1001D000008008BD00000000E4010020C07D000890
:1001E00001F0FF01102A2BDB10F0070F08D010F8E8
:1001F000013B013A8B422DD010F0070F42B3F6D1EC
:10020000F0B441EA012141EA014122F007047FF004
:1002100000070023F0E80256083C85EA010586EA5B
:10022000010685FA47F5A3FA87F586FA47F6A5FA97
:1002300087F68EB9EED1F0BC01F0FF0102F00702A3
:1002400032B110F8013B013A83EA010313B1F8D14E
:100250000020704701387047002D06BF354603382F
:10026000073815F0010F07D1013015F4807F02BF68
:10027000013015F4C03F0130F0BC0138704700BFB9
:1002800053B94AB9002908BF00281CBF4FF0FF31FD
:100290004FF0FF3000F07AB9ADF1080C6DE904CEF3
:1002A00000F006F8DDF804E0DDE9022304B0704751
:1002B0002DE9F0478C460D460446089E002B51D18F
:1002C0008A4217466DD9B2FA82FEBEF1000F0BD0FA
:1002D000CEF1200C01FA0EF520FA0CFC02FA0EF712
:1002E0004CEA050C00FA0EF44FEA174A250CBCFB49
:1002F000FAF81FFA87F90AFB18CC45EA0C4508FB07
:1003000009F3AB420AD9ED1908F1FF3280F02381DD
:10031000AB4240F22081A8F102083D44ED1AA4B29C
:10032000B5FBFAF00AFB105544EA054400FB09F955
:10033000A14509D9E41900F1FF3380F00A81A145F4
:1003400040F2078102383C44A4EB090440EA08402B
:100350000021002E61D024FA0EF400233460736073
:10036000BDE8F0878B4207D9002E54D0002186E8E3
:1003700021000846BDE8F087B3FA83F1002940F078
:100380008E80AB4202D3824200F2FA80841A65EB7F
:1003900003050120AC46002E3FD086E81010BDE8D2
:1003A000F08712B90127B7FBF2F7B7FA87FEBEF163
:1003B000000F34D1EB1B3A0C1FFA87FC0121B3FB71
:1003C000F2F8250C02FB183345EA03450CFB08F351
:1003D000AB4207D9ED1908F1FF3002D2AB4200F26F
:1003E000D1808046ED1AA3B2B5FBF2F002FB1055A6
:1003F00043EA05440CFB00FCA44507D9E41900F1CD
:10040000FF3302D2A44500F2B8801846A4EB0C04D6
:1004100040EA08409DE731463046BDE8F087CEF11E
:10042000200405FA0EF307FA0EF720FA04F83A0C46
:1004300025FA04F448EA0308B4FBF2F14FEA184540
:1004400002FB11441FFA87FC45EA044501FB0CF34B
:10045000AB4200FA0EF409D9ED1901F1FF3080F03A
:100460008A80AB4240F2878002393D44EB1A1FFA82
:1004700088F5B3FBF2F002FB103345EA034500FBBD
:100480000CF3AB4207D9ED1900F1FF386FD2AB4244
:100490006DD902383D44EB1A40EA01418FE7C1F1C2
:1004A000200722FA07F88B4005FA01F448EA030313
:1004B00020FA07FE4FEA134CFD404EEA040EB5FB4E
:1004C000FCF94FEA1E440CFB19551FFA83F844EA65
:1004D000054509FB08F4AC4202FA01F200FA01FA00
:1004E00008D9ED1809F1FF3043D2AC4241D9A9F146
:1004F00002091D442D1B1FFA8EFEB5FBFCF00CFB00
:1005000010554EEA054400FB08F8A04507D9E41849
:1005100000F1FF3529D2A04527D902381C4440EA12
:100520000940A4EB0804A0FB02894C45C6464D4691
:1005300015D312D056B1BAEB0E0364EB050404FADE
:1005400007F7CB401F43CC40376074600021BDE803
:10055000F0871846F8E69046E0E6C245EAD2B8EBE6
:10056000020E69EB03050138E4E72846D7E7404669
:1005700091E78146BEE7014678E702383C4445E70B
:10058000084608E7A8F102083D442BE7704700BF82
:1005900008B50B4B1A6842F400721A601A6842F4EC
:1005A00080621A601A6842F480721A60032000F0B8
:1005B0002FF8002005F050FD05F038FC002008BDA4
:1005C000003C0240034A1168034B1B780B44136044
:1005D000704700BF184B002000000020014B186836
:1005E000704700BF184B002038B50446FFF7F6FFF0
:1005F0000546B4F1FF3F02D0044B1B781C44FFF7C3
:10060000EDFF401B8442FAD838BD00BF0000002037
:10061000074AD36823F4E0631B041B0C000200F4B8
:10062000E060184340F0BF6040F40030D060704795
:1006300000ED00E030B4164BDB68C3F30223C3F1D6
:100640000704042C28BF04241D1D062D17D9033BC5
:10065000012505FA04F4013C2140994005FA03F311
:10066000013B1340194300280BDB0901C9B200F11B
:10067000604000F5614080F8001330BC70470023F3
:10068000E6E700F00F000901C9B2024B1954F4E784
:1006900000ED00E014ED00E0002808DB420900F066
:1006A0001F00012303FA00F0014B43F822007047BA
:1006B00000E100E070B50446866DFFF78FFF94F807
:1006C0003530DBB2022B06D080236365002384F82B
:1006D0003430012070BD05462268136823F01603EC
:1006E00013602268536923F080035361236CE3B1E4
:1006F0002268136823F0080313602268136823F04C
:100700000103136023681B6813F0010F11D0FFF77A
:1007100065FF401B0528F5D920236365002384F875
:100720003430032084F8350070BDA36C002BDFD17A
:10073000E3E7E26D3F239340B360002084F8340088
:10074000012384F8353070BD90F83530DBB2022BD0
:1007500003D08023436501207047052380F835309E
:100760000268136823F0010313600020704790F8BB
:100770003500704700230F2B00F2CD80F0B583B019
:1007800062E085684FEA430E032707FA0EF725EA71
:100790000705CE6806FA0EF635438560456825EAFA
:1007A00002024D68C5F300159D402A43426057E0A0
:1007B000DD08083550F8252003F00706B6000F279E
:1007C000B74022EA07020F6907FA06F6324340F8FB
:1007D000252059E0042700E0002707FA06F63243F7
:1007E00002354D4E46F825204C4A1568E24305EA8D
:1007F00002064F6817F4803F01D044EA0506474DD2
:100800002E606D6802EA05064F6817F4003F01D0BC
:1008100044EA0506414D6E60AD6802EA05064F6880
:1008200017F4801F01D044EA05063C4DAE60ED6828
:100830002A404E6816F4001F01D044EA0502374CE6
:10084000E26001330F2B64D801229A400C681440F7
:10085000A242F6D14D6805F00305013D012D90D966
:100860004A6802F00302032A09D0C2685F00032627
:10087000BE4022EA06028D68BD402A43C2604A6833
:1008800002F00302022A93D002685F000326BE40F2
:1008900022EA06024D6805F00305BD402A430260C6
:1008A0004A6812F0805FCCD0002201921C4A556C3D
:1008B00045F480455564526C02F480420192019ADD
:1008C0009D08AE1C144A52F8262003F00306B60019
:1008D0000F27B74022EA0702124FB8423FF47CAF1D
:1008E00007F58067B8420ED007F58067B8420CD094
:1008F00007F58067B8420AD007F58067B8423FF431
:1009000069AF072769E7012767E7022765E703273C
:1009100063E703B0F0BD704700380140003C014080
:1009200000380240000002400369194201D1002052
:1009300070470120704712B90904816170478161D5
:100940007047436903EA010221EA030141EA0241D7
:100950008161704790F83E30DBB2402B0AD00369CA
:10096000B3F5804F15D0036D002B34D0036D012BF0
:100970003BD07047036D2BB90268436C03F0FE0354
:10098000136170470268436C43F00103DBB21361EB
:10099000704790F83D30DBB2212B0FD00268436CDA
:1009A00043F00103DBB21361436B6BB1DB6B5BB1F3
:1009B0000268536843F40063536070470268436CF5
:1009C00003F0FE031361EFE7836B002BD1D0DB6BE9
:1009D000002BEDD1CDE70268436CC3F3C81303F0DD
:1009E000060343F0F003136170470268436CC3F3DE
:1009F000C81303F0060343F0F1031361B9E702687B
:100A0000436CDBB21361436B3BB1DB6B2BB1026810
:100A1000536843F4006353607047836B002BFBD033
:100A2000DB6B002BF3D1F7E710B48BB090F83E30BE
:100A3000DAB2C16A046B90F83D30DBB2222B0BD0E6
:100A40000023099303685A6909929B690993099BDA
:100A50000BB05DF8044B7047036D0BB9402A17D0FB
:100A6000036D1BB90369B3F5404F19D0438D9BB299
:100A7000002B25D1029303685A6902929A69029267
:100A8000029A1A6842F400721A6000230365DFE7D5
:100A9000009303685A6900929B690093009BD7E713
:100AA0000023019303685A6901929A690192019A9D
:100AB0001A6842F480721A60036D01330365C7E758
:100AC000438D9BB2012B25D0438D9BB2022B7BD053
:100AD0000268136843F48063136003685A6812F471
:100AE000006F0ED011F5803F07D0012905D00829ED
:100AF00003D0102901D0202903D15A6842F4805232
:100B00005A600023089303685A6908929B69089306
:100B1000089BBAE711F5803F11D0082934D020296D
:100B200032D0122C2ED0042940D002293ED01029D8
:100B30003CD00268136823F4806313603BE00268D2
:100B4000136823F48063136003685A6812F4006F1B
:100B50000CD01A6822F480621A60002303930368A1
:100B60005A6903929B690393039B8EE700220492C8
:100B70005A6904929A690492049A1A6842F40072BB
:100B80001A6082E70129CED00268136823F48063DB
:100B900013600023069303685A6906929A690692C5
:100BA000069A1A6842F400721A606EE702681368C7
:100BB00043F4806313600023059303685A69059228
:100BC0009B690593059B60E704290ED002290CD090
:100BD00010290AD00268136823F480631360026846
:100BE000136843F40063136004E00268136843F47D
:100BF0008063136003685A6812F4006F0ED011F519
:100C0000803F07D0012905D0082903D0102901D041
:100C1000202903D15A6842F480525A600023079376
:100C200003685A6907929B690793079B2DE7438DD9
:100C30009BB25BB10368426A12781A61436A01335E
:100C40004362438D9BB2013B9BB243857047438D0A
:100C50009BB25BB1436A026812691A70436A01333E
:100C60004362438D9BB2013B9BB2438570470000BA
:100C700082B0002301930E4B1B68DB080D4AA2FBD8
:100C800003231B0A03EB83030193019B013B0193A5
:100C9000019B33B103681B6813F4007FF5D100207A
:100CA00004E0036C43F020030364012002B07047AA
:100CB0000C00002089B5F814C36AB3F52A0F04D0DC
:100CC000C36AB3F12A4F03D070470123C362704750
:100CD0000823C362F8E70000002800F0C880F8B5D8
:100CE000044690F83D30002B75D0242384F83D3025
:100CF0002268136823F0010313602268136843F429
:100D0000004313602268136823F40043136001F06A
:100D1000BBFA6268584B9A4262D8584B98428CBFD3
:100D200000230123002B40F0A480554BA3FB00239C
:100D30009A0C21684B6823F03F0313434B602568EE
:100D4000296A21F03F0166684B4B9E424ED8531CE6
:100D50000B432B622268D16921F44F4121F0FF013E
:100D60006368454DAB424BD801385B00B0FBF3F3F1
:100D70000133C3F30B03042B38BF04230B43D361AC
:100D800021680B6823F0C003E269206A0243134321
:100D90000B6021688B6823F4034323F0FF0322696F
:100DA000E068024313438B602168CB6823F0FF03A4
:100DB0006269A06902431343CB602268136843F061
:100DC0000103136000202064202384F83D30206359
:100DD00084F83E00F8BD80F83C3005F049F884E71F
:100DE000284B98428CBF002301239BE74FF4967356
:100DF00003FB02F3244AA2FB03239B090133A7E769
:100E0000A668BEB9451E03EB4307B5FBF7F50135F0
:100E1000C5F30B05B5FA85F56D0935BBC6B90138C3
:100E200003EB4303B0FBF3F30133C3F30B0343F4CE
:100E30000043A3E7451E03EB830707EB8707B5FBDA
:100E4000F7F50135C5F30B05B5FA85F56D09E4E74E
:100E5000013803EB830303EB8303B0FBF3F30133AC
:100E6000C3F30B0343F4404388E7012386E70120E3
:100E700070470120F8BD00BFA08601007F841E00DE
:100E800083DE1B43FF083D00D34D621030B482B0B7
:100E90000024019490F83D40E4B2202C03D00220BD
:100EA00002B030BC70472C4C2468E4082B4DA5FBE5
:100EB0000454240A04EB840404EB84040194019C8C
:100EC000013C0194019C002C35D00468A56915F003
:100ED000020FF4D190F83C50012D3BD0012580F851
:100EE0003C50256815F0010F03D1256845F0010538
:100EF000256005682C6824F400642C60212480F8A7
:100F00003D40102480F83E40002404644262438542
:100F1000438D0385124BC36241640268136843F436
:100F20008073136080F83C400268536843F4E063C8
:100F300053602046B4E700230363202280F83D205D
:100F400080F83E30026C42F02002026480F83C30AF
:100F50000120A5E70220A3E70C00002089B5F814C2
:100F60000000FFFF30B482B00024019490F83D40AF
:100F7000E4B2202C03D0022002B030BC70472F4CCA
:100F80002468E4082E4DA5FB0454240A04EB8404D1
:100F900004EB84040194019C013C0194019C002C0D
:100FA0003AD00468A56915F0020FF4D190F83C50CE
:100FB000012D40D0012580F83C50256815F0010F27
:100FC00003D1256845F00105256005682C6824F4E7
:100FD00000642C60222480F83D40102480F83E40BC
:100FE0000024046442624385438D0385154BC3622C
:100FF00041640268136843F48063136002681368F5
:1010000043F48073136080F83C400268536843F4F3
:10101000E06353602046AFE700230363202280F89B
:101020003D2080F83E30026C42F02002026480F8DD
:101030003C300120A0E702209EE700BF0C0000200A
:1010400089B5F8140000FFFF08B5C26A90F83D307A
:10105000DBB2212B00D008BD438D9BB2D3B9082A47
:1010600004D0202A02D012F5803F20D102685368B4
:1010700023F4E06353600268136843F40073136061
:1010800000230363202280F83D2080F83E3004F0E6
:10109000C7FAE0E70368426A12781A61436A0133CB
:1010A0004362438D9BB2013B9BB2438508BD0268FE
:1010B000536823F4E063536011230363002380F833
:1010C0003E30202380F83D3004F0AAFA08BD704776
:1010D00008B590F83D30DAB2438D9BB283B1036816
:1010E000416A09781961436A01334362438D9BB2B7
:1010F000013B9BB24385438D9BB20BB9292A00D09B
:1011000008BD0268536823F480635360212303639E
:10111000282380F83D30FFF7DAFFF1E7704708B584
:1011200090F83D30DAB2438D9BB283B1436A0168D7
:1011300009691970436A01334362438D9BB2013BD5
:101140009BB24385438D9BB20BB92A2A00D008BDC0
:101150000268536823F480635360222303632823C7
:1011600080F83D30FFF7DAFFF1E7704708B590F8F7
:101170003D3003F02803282B07D003686FF00202EC
:101180005A61002380F83C3008BD0268536823F49C
:101190008063536011F0040F0BD0002311F0800F17
:1011A00009D18289002180F83C101946FFF7DDFF44
:1011B00008BD0123F2E7028BF4E7704708B590F809
:1011C0003D30DBB2C26A082A08D0202A06D0212B83
:1011D00020D003686FF480625A6108BD282BF6D1D5
:1011E0001A4BC3620268536823F4E06353600368D8
:1011F0006FF480625A610268136823F4806313609D
:1012000000230363202280F83D2080F83E30FFF762
:10121000D4FF08BD0D4BC36221230363202380F854
:101220003D30002380F83E300268536823F4E063C9
:10123000536003686FF480625A610268136823F494
:1012400080631360FFF743FF08BD00BF0000FFFF8E
:10125000704708B590F83D30026D9AB9C36C012B08
:1012600008D00268836CC3F307231361036D013355
:10127000036508BD0268836CDBB21361036D023342
:10128000036508BDDBB2026D012A03D0026D022A9C
:1012900008D008BD0268836CDBB21361036D0133B3
:1012A000036508BD222B1ED0428D92B20AB1212BBC
:1012B0001FD0428D92B2002AEBD1212BE9D10268D6
:1012C000536823F4E06353600268136843F40073C7
:1012D000136000230363202280F83D2080F83E3015
:1012E000FFF7B6FFD5E70268136843F48073136015
:1012F00008BD0368426A12781A61436A0133436287
:10130000438D9BB2013B9BB2438508BD10B590F85D
:101310003D30DBB290F83E20D2B2C46A018D09B9EB
:10132000212B04D0212B3BD0402A37D010BD082CD4
:1013300004D0202C02D014F5803F19D102685368E4
:1013400023F4E06353600268136843F4007313608E
:1013500000230363202380F83D3090F83E30DBB259
:10136000402B15D0002380F83E3004F059F910BD11
:101370000268536823F4E06353601123036300237E
:1013800080F83E30202380F83D3004F049F910BD4C
:10139000002380F83E30FFF75BFF10BD222BC5D144
:1013A000438D9BB28BB190F83E30DBB2402B12D014
:1013B0000368426A12781A61436A01334362438DBB
:1013C0009BB2013B9BB24385B0E70268536823F4AC
:1013D0008063536010BDFFF73CFF10BD704708B538
:1013E000C26A438D9BB2042B14D0438D9BB2032B56
:1013F00022D0438D9BB2022B39D0436A0268126916
:101400001A70436A01334362438D9BB2013B9BB226
:10141000438508BD0268536823F480635360436AC0
:10142000026812691A70436A01334362438D9BB2AA
:10143000013B9BB2438508BD01684B6823F4806380
:101440004B60042A06D0022A04D00268136823F4F1
:1014500080631360436A026812691A70436A013339
:101460004362438D9BB2013B9BB2438508BD012A79
:101470000BD0102A09D0042A38D0022A36D00268AC
:10148000136843F40073136004E00268136823F4E4
:1014900080631360436A026812691A70426A531CBF
:1014A0004362438D9BB2013B9BB2438503681B693A
:1014B0005370436A01334362438D9BB2013B9BB23D
:1014C00043850268536823F440735360202380F8F7
:1014D0003D3090F83E30DBB2402B0DD0002380F839
:1014E0003E301223036304F0B7F808BD02681368A6
:1014F00043F480631360CDE7002380F83E3003633C
:10150000FFF76CFF08BD704790F83D30DBB2222B2F
:1015100000D07047438D9BB2032B15D9436A0268F4
:1015200012691A70436A01334362438D9BB2013BD7
:101530009BB24385438D9BB2032BEAD1026853686B
:1015400023F4806353607047C26A022AE1D0012B02
:10155000DFD810B50446FFF78BFB00282ED1226898
:10156000136823F4806313602268536823F4E063F4
:101570005360636A226812691A70636A0133636296
:10158000638D9BB2013B9BB26385202384F83D3081
:1015900094F83E30DBB2402B08D0002384F83E3074
:1015A00012232363204604F057F810BD002384F86B
:1015B0003E3023632046FFF711FF10BD22685368B9
:1015C00023F4E0635360636A226812691A70636AE5
:1015D00001336362638D9BB2013B9BB26385202321
:1015E00084F83D30002384F83E302046FFF78BFF1F
:1015F00010BD704700B583B000230193806B90F855
:101600003D20D2B2324B1B68DB083249A1FB0313E9
:101610001B0A03EB8303C3EBC3030193019B43B199
:10162000019B013B019303681B6813F4007FF5D114
:1016300003E0036C43F020030364436B0BB1002110
:10164000D963836B0BB10021D96301680B6823F464
:1016500080630B6000234385436B0BB10021196548
:10166000836B0BB10021196501680B6823F001033E
:101670000B6090F83D30DBB2602B0ED002F02802F8
:10168000282A14D0202380F83D30002380F83E30F3
:10169000FFF739FF03B05DF804FB202380F83D30ED
:1016A000002380F83E300364FFF7A3FFF2E70268EF
:1016B000136843F0010313600268136843F4806306
:1016C000136000230363282380F83D30E0E700BF68
:1016D0000C00002089B5F81410B5044690F83D3090
:1016E000DBB290F83E20D2B2102A36D0402A34D055
:1016F00003F02802282A38D02268526812F4006FBA
:1017000007D1602B05D0202384F83D30002384F8D6
:101710003E300023236323685A6812F4006F48D0D8
:101720005A6822F400625A60626B92F83530DBB27C
:10173000012B20D0444B1365606BFFF705F80028A0
:1017400049D02268136823F001031360202384F832
:101750003D30606B036D98473DE0222BC8D1216876
:101760000A6822F400620A60C2E700232363282388
:1017700084F83D30CFE7A36B334A1A65A06BFEF7C0
:10178000E3FF40B323685A6912F0400F05D0626A44
:101790001B691370636A013363622268136823F064
:1017A00001031360202384F83D30A06B036D98473C
:1017B00011E094F83D20D2B2602A1FD05A6912F08D
:1017C000400F05D0626A1B691370636A013363625C
:1017D0002046FFF798FE236C13F00F0F04D0226809
:1017E000536823F4E063536094F83D30DBB2226C1D
:1017F00012F0040F01D0282B18D010BD202284F83D
:101800003D20002222645A6912F0400F05D0626A1E
:101810001B691370636A013363622268136823F0E3
:10182000010313602046FFF7E4FED4E7074BE362B1
:1018300000232363202284F83D2084F83E30204694
:10184000FFF7BBFCD9E700BFF51500080000FFFF5C
:1018500030B583B0044690F83D50EDB2026853684D
:1018600023F4E06353600023019303685A690192F3
:101870001A6842F001021A60019B0268136823F49F
:101880008063136003685A6812F4006F20D0222D21
:1018900059D02A2D57D0426B1268526892B24285B5
:1018A000428D92B21AB1026C42F0040202645A688C
:1018B00022F400625A60606BFEF759FF012807D0DE
:1018C000636B464A1A65606BFEF73EFF00285BD1EA
:1018D000638D9BB233B323685A6912F0040F0AD0A8
:1018E000626A1B691370636A01336362638D9BB222
:1018F000013B9BB2638523685A6912F0400F0AD0FE
:10190000626A1B691370636A01336362638D9BB201
:10191000013B9BB26385638D9BB21BB1236C43F08B
:1019200004032364236C002B32D12A2D34D094F885
:101930003D30DBB2282B38D0236B222B42D0222D16
:1019400040D003B030BDA26B1268526892B262857B
:10195000628D92B21AB1226C42F0040222645A687B
:1019600022F400625A60A06BFEF701FF0128AFD09D
:10197000A36B1A4A1A65A06BFEF7E6FE0028A7D0F3
:10198000A06B036D9847A3E7606B036D98479FE7D3
:101990002046FFF7A1FED4E700232363282384F821
:1019A0003D302046FFF7BAFBC1E70D4BE362002351
:1019B0002363202284F83D2084F83E302046FFF740
:1019C000FCFBBEE700232363202284F83D2084F83B
:1019D0003E302046FFF7A2FBB3E700BFF515000835
:1019E0000000FFFFF8B5044602685568C66A90F823
:1019F0003E30DBB290F83D10102B14D0C8B2402B13
:101A000011D0236C002B7FD05369002113F0020FFB
:101A10007DD015F4007F7AD0236C03B19169204604
:101A2000FFF7A4FBF8BD9769516911F0010009D1D6
:101A3000B6F52A0F34D0B6F12A4F2FD00026002E4B
:101A400040F0958010B115F4007F2BD111F0080FF4
:101A500002D015F4007F2CD111F0020F02D015F442
:101A6000007F2AD117F0040F33D0526812F4006FB0
:101A70007DD111F0800F05D015F4806F02D011F0E8
:101A8000040F1ED011F0040F71D015F4007F6ED03A
:101A9000102B1AD02046FFF7DCFBF8BD0126CEE75D
:101AA0000126CCE72046FFF707F92046FEF752FF54
:101AB000F8BD2046FEF7A3FFF8BD2046FEF7B4FFB1
:101AC000F8BD2046FFF722FCF8BD2046FFF7BCFA20
:101AD000F8BD536813F4006F49D111F0400F05D0E1
:101AE00015F4806F02D011F0040F09D011F0040F2B
:101AF0003DD015F4007F3AD02046FFF770FCF8BDCA
:101B00002046FFF701FDF8BD916953697EE713F0A8
:101B1000100F02D015F4007F16D1212818D02928E3
:101B200016D013F0400F05D015F4806F02D013F0DB
:101B3000040F25D013F0040F19D015F4007F16D030
:101B40002046FFF784F812E02046FFF781FEF8BD3B
:101B500013F0800F05D015F4806F02D013F0040F3E
:101B600006D013F0040F02D015F4007F04D1F8BDA5
:101B70002046FFF7ADFAF8BD2046FFF758F8F8BD4C
:101B80002046FFF7CCFAF8BDF8B5044603685D6956
:101B90005F6890F83E20D2B215F4807F07D017F42A
:101BA000807F37D06FF480715961012600E00026F4
:101BB00015F4007F08D017F4807F05D046F00206A8
:101BC00023686FF40071596115F4806F14D017F415
:101BD000807F11D0638D99B294F83D30DBB2206BD9
:101BE000202A19D023686FF48061596146F00406F9
:101BF000102A1FD0402A1DD015F4006F08D017F40A
:101C0000807F05D046F0080623686FF400625A61B1
:101C1000B6B9F8BD0026CBE70029E3D1212B05D0CA
:101C2000292B03D0282BDDD12128DBD12046FFF73B
:101C3000C5FAE1E72268136843F400731360DBE739
:101C4000236C1E4326642046FFF746FDE1E70000B3
:101C5000002800F0E98170B582B00446036813F0F3
:101C6000010F3BD0A74B9B6803F00C03042B2CD037
:101C7000A44B9B6803F00C03082B21D06368B3F5D9
:101C8000803F4FD0B3F5A02F52D09E4B1A6822F45C
:101C900080321A601A6822F480221A606368002B6E
:101CA00050D0FEF79BFC0546964B1B6813F4003F93
:101CB00014D1FEF793FC401B6428F5D90320B8E14A
:101CC000904B5B6813F4800FD8D08E4B1B6813F4D5
:101CD000003F03D06368002B00F0A881236813F055
:101CE000020F55D0874B9B6813F00C0F3ED0854BED
:101CF0009B6803F00C03082B33D0E368002B68D0FB
:101D00000122814B1A60FEF769FC05467D4B1B687A
:101D100013F0020F54D1FEF761FC401B0228F5D9E5
:101D2000032086E1774A136843F480331360B5E7F4
:101D3000744B1A6842F480221A601A6842F48032A6
:101D40001A60ABE7FEF74AFC05466E4B1B6813F4BE
:101D5000003FC3D0FEF742FC401B6428F5D90320A6
:101D600067E1684B5B6813F4800FC6D1654B1B6855
:101D700013F0020F04D0E368012B01D0012058E1D9
:101D8000604A136823F0F803216943EAC103136032
:101D9000236813F0080F40D0636963B301225B4BE3
:101DA0001A60FEF71BFC0546564B5B6F13F0020FE3
:101DB00033D1FEF713FC401B0228F5D9032038E18C
:101DC000504A136823F0F803216943EAC103136002
:101DD000DEE700224C4B1A60FEF700FC0546494B3B
:101DE0001B6813F0020FD3D0FEF7F8FB401B02284C
:101DF000F5D903201DE10022444B1A60FEF7EEFBEB
:101E00000546404B5B6F13F0020F06D0FEF7E6FB72
:101E1000401B0228F5D903200BE1236813F0040FBF
:101E200079D0384B1B6C13F0805F33D100230193C2
:101E3000344B1A6C42F080521A641B6C03F08053CE
:101E40000193019B0125324B1B6813F4807F23D043
:101E5000A368012B34D0052B38D02A4B1A6F22F0FF
:101E600001021A671A6F22F004021A67A368002B96
:101E700036D0FEF7B3FB0646224B1B6F13F0020F62
:101E800048D1FEF7ABFB801B41F288339842F3D96F
:101E90000320CEE00025D6E71D4A136843F4807383
:101EA0001360FEF79BFB0646194B1B6813F4807FFB
:101EB000CED1FEF793FB801B0228F5D90320B8E0B2
:101EC000104A136F43F001031367CFE70D4B1A6FEE
:101ED00042F004021A671A6F42F001021A67C5E75E
:101EE000FEF77CFB0646074B1B6F13F0020F11D069
:101EF000FEF774FB801B41F288339842F3D903202C
:101F000097E000BF0038024000004742800E474281
:101F100000700040EDB9A369002B00F08980484AA9
:101F2000926802F00C02082A51D0022B17D000222E
:101F3000444B1A60FEF752FB0446414B1B6813F0FA
:101F4000007F42D0FEF74AFB001B0228F5D9032090
:101F50006FE03B4A136C23F080531364DBE70022ED
:101F6000384B1A60FEF73AFB0546354B1B6813F0F9
:101F7000007F06D0FEF732FB401B0228F5D9032074
:101F800057E0E369226A1343626A43EA8213A26A52
:101F90005208013A43EA0243E26A43EA0263284AEA
:101FA00053600122274B1A60FEF718FB0446244BAE
:101FB0001B6813F0007F06D1FEF710FB001B022800
:101FC000F5D9032035E0002033E0002031E0012B7B
:101FD00031D01B4B5B6803F48001E269914201D070
:101FE000012026E003F03F02216A8A4201D001204D
:101FF0001FE0616A47F6C0721A40B2EB811F01D040
:10200000012016E003F44031A26A5208013AB1EB14
:10201000024F01D001200CE003F07063E26AB3EBE1
:10202000026F0AD0012004E001207047012000E087
:10203000002002B070BD0120FBE70020F9E700BFDF
:102040000038024060004742F8B5314B9B6803F00E
:102050000C03042B59D0082B01D02E48F8BD2C4B73
:102060005A6802F03F025B6813F4800F2AD0284BB5
:102070005B68C3F388131E4600275C010025E41A41
:1020800065EB0705A90141EA9461A001001B61EB22
:102090000501CB0043EA5073C400A01943EB0701CC
:1020A0004B0243EAD0534402204619460023FEF770
:1020B000E7F8174B5B68C3F3014301335B00B0FBE8
:1020C000F3F0F8BD124B5B68C3F388131E4600277C
:1020D0005C010025E41A65EB0705A90141EA94615A
:1020E000A001001B61EB0501CB0043EA5073C40063
:1020F000A01943EB07018B0243EA90538402204668
:1021000019460023FEF7BCF8D3E70348F8BD00BF2B
:10211000003802400024F40000127A00002800F089
:102120009E8070B50446504B1B6803F007038B423A
:1021300009D2CBB24C4A1370136803F007039942DB
:1021400001D0012070BD236813F0020F17D013F0E7
:10215000040F04D0454A936843F4E0539360236826
:1021600013F0080F04D0414A936843F4604393602E
:102170003E4A936823F0F003A068034393600D4642
:10218000236813F0010F32D06368012B21D09A1E0F
:10219000012A25D9354A126812F0020F61D033495D
:1021A0008A6822F0030213438B60FEF717FA064693
:1021B0002E4B9B6803F00C036268B3EB820F16D0C2
:1021C000FEF70CFA801B41F288339842F0D90320C5
:1021D00070BD264A126812F4003FE0D1012070BDA4
:1021E000224A126812F0007FD9D1012070BD1E4B27
:1021F0001B6803F007039D4209D2EAB21A4B1A701A
:102200001B6803F007039D4201D0012070BD2368C5
:1022100013F0040F06D0154A936823F4E053E168E5
:102220000B439360236813F0080F07D00F4A93689D
:1022300023F46043216943EAC1039360FFF704FF7D
:102240000A4B9B68C3F30313094AD35CD840094B7C
:102250001860094B186803F0FFFE002070BD0120D4
:102260007047012070BD00BF003C024000380240B2
:10227000A87E00080C00002004000020014B186814
:10228000704700BF0C00002008B5FFF7F7FF044BB4
:102290009B68C3F38223034AD35CD84008BD00BFC8
:1022A00000380240B87E000808B5FFF7E7FF044B8E
:1022B0009B68C3F34233034AD35CD84008BD00BFD8
:1022C00000380240B87E00080F2303600B4B9A6869
:1022D00002F0030242609A6802F0F00282609A689B
:1022E00002F4E052C2609B68DB0803F4E053036130
:1022F000034B1B6803F007030B6070470038024074
:10230000003C024030B4036A23F001030362036A15
:102310004468826922F073020D682A4323F00203A5
:102320008D682B430D4DA84209D00C4DA8420DD00D
:10233000446082614A684263036230BC704723F0A4
:102340000803CD682B4323F00403EEE724F4407424
:102350004D692C438D692C43EAE700BF0000014022
:1023600030B4036A23F480730362036A4468C26969
:1023700022F073020D682A4323F400738D6843EA48
:1023800005230F4DA84209D00D4DA8420ED0446040
:10239000C2614A68C263036230BC704723F40063C1
:1023A000CD6843EA052323F48063EDE724F4405429
:1023B0004D6944EA05148D6944EA0514E7E700BF56
:1023C0000000014030B4036A23F480530362036ABF
:1023D0004468C26922F4E6420D6842EA052223F409
:1023E00000538D6843EA0533074DA84206D0446088
:1023F000C2614A680264036230BC704724F48044BE
:102400004D6944EA8514F2E700000140704700007E
:1024100090F83D30DBB2012B01D001207047022340
:1024200080F83D300268D36843F00103D36003684D
:10243000144A934218D0B3F1804F15D0A2F57C42D4
:10244000934211D002F5806293420DD002F5806272
:10245000934209D002F59A32934205D01A6842F0AD
:1024600001021A60002070479A6802F00702062AEB
:1024700005D01A6842F001021A600020704700205F
:10248000704700BF000001407047704770477047B9
:1024900010B5044603681A6912F0020F11D0DA6809
:1024A00012F0020F0DD06FF002021A6101230377C0
:1024B00003689B6913F0030F70D0FFF7E6FF00235A
:1024C000237723681A6912F0040F12D0DA6812F029
:1024D000040F0ED06FF004021A61022323772368E1
:1024E0009B6913F4407F5FD02046FFF7CEFF0023A7
:1024F000237723681A6912F0080F12D0DA6812F0F5
:10250000080F0ED06FF008021A61042323772368A6
:10251000DB6913F0030F4ED02046FFF7B6FF002310
:10252000237723681A6912F0100F12D0DA6812F0BC
:10253000100F0ED06FF010021A6108232377236862
:10254000DB6913F4407F3DD02046FFF79EFF002358
:10255000237723681A6912F0010F03D0DA6812F0AA
:10256000010F36D123681A6912F0800F03D0DA68A0
:1025700012F0800F34D123681A6912F0400F03D093
:10258000DA6812F0400F32D123681A6912F0200F76
:1025900003D0DA6812F0200F30D110BDFFF774FFBE
:1025A0002046FFF773FF8AE72046FFF76DFF2046BE
:1025B000FFF76CFF9BE72046FFF766FF2046FFF71B
:1025C00065FFACE72046FFF75FFF2046FFF75EFFA1
:1025D000BDE76FF001021A61204603F053FBC1E72B
:1025E0006FF080021A61204600F019FAC3E76FF01D
:1025F00040021A612046FFF74AFFC5E76FF020024C
:102600001A61204600F00AFAC7E700000368254A6D
:1026100090420ED0B0F1804F0BD0A2F57C42904298
:1026200007D002F58062904203D002F580629042AA
:1026300003D123F070034A6813431A4A90421AD018
:10264000B0F1804F17D0A2F57C42904213D002F532
:10265000806290420FD002F5806290420BD002F56A
:102660009A32904207D002F58062904203D002F580
:102670008062904203D123F44073CA68134323F06D
:1026800080034A69134303608B68C3620B688362EB
:10269000044B984202D00123436170470B690363E6
:1026A000F9E700BF0000014038B310B5044690F8C8
:1026B0003D30EBB1022384F83D30211D2068FFF747
:1026C000A5FF012384F8463084F83E3084F83F307B
:1026D00084F8403084F8413084F8423084F8433044
:1026E00084F8443084F8453084F83D30002010BD33
:1026F00080F83C30FFF78AFEDCE70120704738B3F2
:1027000010B5044690F83D30EBB1022384F83D301B
:10271000211D2068FFF77AFF012384F8463084F8F2
:102720003E3084F83F3084F8403084F8413084F8FB
:10273000423084F8433084F8443084F8453084F8DB
:102740003D30002010BD80F83C3003F0DBFBDCE7BF
:102750000120704730B4036A23F010030362036A58
:102760004468826922F4E6420D6842EA052223F0B9
:1027700020038D6843EA05130E4DA84209D00D4D84
:10278000A8420ED0446082614A688263036230BC12
:10279000704723F08003CD6843EA051323F040031C
:1027A000EDE724F440644D6944EA85048D6944EA08
:1027B0008504E7E70000014038B590F83C30012B74
:1027C00060D00D460446012380F83C300C2A1AD80C
:1027D000DFE802F0071919191D191919311919190A
:1027E00044000068FFF78EFD2268936943F00803F8
:1027F00093612268936923F00403936122689369CB
:1028000029690B439361002084F83C0038BD0068BF
:10281000FFF7A0FF2268936943F400639361226885
:10282000936923F48063936122689369296943EA79
:1028300001239361E7E70068FFF792FD2268D369FF
:1028400043F00803D3612268D36923F00403D36102
:102850002268D36929690B43D361D4E70068FFF785
:10286000B1FD2268D36943F40063D3612268D36960
:1028700023F48063D3612268D369296943EA012381
:10288000D361C0E7022038BD10B401F01F0101235D
:1028900003FA01F4036A23EA04030362036A8A4029
:1028A000134303625DF8044B704700000A46002999
:1028B00035D190F83E30DBB213F1FF3318BF01235E
:1028C000002B68D110B5002A45D1022380F83E3094
:1028D0001146044601220068FFF7D6FF2368304AFC
:1028E000934248D023682E4A934249D0B3F1804F97
:1028F00046D0A2F57C42934242D002F580629342D8
:102900003ED002F5806293423AD002F59A32934269
:1029100036D01A6842F001021A60002010BD042966
:1029200009D008290FD090F84130DBB213F1FF3302
:1029300018BF0123C4E790F83F30DBB213F1FF3337
:1029400018BF0123BCE790F84030DBB213F1FF332E
:1029500018BF0123B4E7042A05D0082A07D00223B0
:1029600080F84130B4E7022380F83F30B0E702231B
:1029700080F84030ACE75A6C42F400425A64B1E748
:102980009A6802F00702062A07D01A6842F001028C
:102990001A60002010BD01207047002010BD00BF4C
:1029A0000000014090F83C30012B33D030B40123BB
:1029B00080F83C30022380F83D3004686368A268E8
:1029C00023F070030D682B4363600368124CA3422D
:1029D00012D0B3F1804F0FD0A4F57C44A3420BD0AA
:1029E00004F58064A34207D004F58064A34203D0B9
:1029F00004F59A34A34204D122F0800249680A43C4
:102A00009A60012380F83D30002380F83C3018465E
:102A100030BC70470220704700000140704770478B
:102A20000268D36823F49073D3600268536923F07B
:102A300001035361036B012B05D0202380F83E3046
:102A40000023036370470268D36823F01003D36048
:102A5000F3E790F83D30DBB2212B01D00220704724
:102A60008368B3F5805F17D00268036A591C01625E
:102A70001B785360C38C9BB2013B9BB2C384C3B928
:102A80000268D36823F08003D3600268D36843F000
:102A90004003D360002070470369002BE4D1036A30
:102AA00002681B88C3F308035360036A023303629E
:102AB000E0E7002070470000F8B50446026813699B
:102AC00023F44053C1680B431361836802691343C5
:102AD00042691343C26913430168CA6822F416426B
:102AE00022F00C021343CB600268536923F4407355
:102AF00081690B4353610368314A934232D002F536
:102B0000806293422ED0FFF7BFFBE369B3F5004F1D
:102B10002BD025680021061841EB010736184F41DC
:102B2000FB0043EA5673F20016461F4663689A009C
:102B30009B0F80197941FDF7A3FB224CA4FB0032C7
:102B40005109642202FB110213013233A4FB032357
:102B50005B0903F0F00202EB011203F00F031344D0
:102B6000AB60F8BDFFF7A0FBCFE725680021061892
:102B700041EB010736184F41FB0043EA5673F20060
:102B800016461F466268002392185B4180197941FE
:102B9000FDF776FB0B4CA4FB00325109642202FBCB
:102BA0001102D3003233A4FB03235B095A0002F461
:102BB000F87202EB011203F007031344AB60F8BD97
:102BC000001001401F85EB5158B310B5044690F832
:102BD0003D300BB3242384F83D302268D36823F4BE
:102BE0000053D3602046FFF767FF2268136923F480
:102BF000904313612268536923F02A0353612268CA
:102C0000D36843F40053D36000202064202384F869
:102C10003D3084F83E3010BD80F83C3003F0E0F9E0
:102C2000D8E70120704790F83D30DBB2202B01D06F
:102C300002207047A9B1B2B190F83C30012B14D0FA
:102C400001628284C28400230364212280F83D2033
:102C500080F83C300168CA6842F08002CA601846B9
:102C6000704701207047012070470220704708B567
:102C70000168CB6823F04003CB60202380F83D300F
:102C800003F00CF8002008BD704708B5806B0023E6
:102C9000C385C384FFF7F8FF08BD704790F83E3046
:102CA000DBB2222B01D0022070478368B3F5805F2E
:102CB0000AD0826AB3F5805F02D093B9036983B901
:102CC00003685B68137011E00269002AF1D1826A1F
:102CD00003685B68C3F308031380836A023383626B
:102CE00007E003685B6803F07F031370836A0133B6
:102CF0008362C38D9BB2013B9BB2C38523BB10B5DE
:102D000004460268D36823F02003D3600268D368C6
:102D100023F48073D3600268536923F00103536185
:102D2000202380F83E30036B012B04D002F0D2FF49
:102D30000020206310BD0268D36823F01003D36025
:102D4000818DFFF7AAFFF3E70020704730B583B00D
:102D5000044602681368D068516913F00F0505D165
:102D600013F0200F02D010F0200F56D1002D6AD0A2
:102D700011F0010102D110F4907F64D013F0010F23
:102D800006D010F4807F03D0226C42F0010222644E
:102D900013F0040F04D019B1226C42F00202226435
:102DA00013F0020F04D019B1226C42F00402226425
:102DB00013F0080F07D010F0200F00D119B1226CCA
:102DC00042F008022264226C002A4BD013F0200F3C
:102DD00002D010F0200F24D123685B6903F0400378
:102DE000226C12F0080F00D13BB32046FFF718FE0B
:102DF00023685A6912F0400F1BD05A6922F0400232
:102E00005A61A36B8BB14F4A1A65A06BFDF79CFC0E
:102E100040B3A06B036D984724E02046FFF73EFFC8
:102E200020E02046FFF73AFFD6E72046FFF72CFFC9
:102E300018E02046FFF728FF14E02046FFF724FFA4
:102E4000002323640EE0216B01290DD013F0800FC5
:102E500002D010F0800F6CD113F0400F02D010F0B0
:102E6000400F6AD103B030BD13F0100FEED010F058
:102E7000100FEBD000230193136801935368019363
:102E8000019B536913F0400F31D0A16B0B685B6855
:102E90009BB2002BE6D0A08D8342E3D2E385CB69C1
:102EA000B3F5807F1AD0D36823F48073D36022688F
:102EB000536923F0010353612268536923F04003EF
:102EC0005361202384F83E30002323632268D368B3
:102ED00023F01003D360A06BFDF7ECFBA18DE38D15
:102EE0009BB2C91A89B22046FFF7D7FEBAE7A18D77
:102EF000E38D9BB2C91A89B2E38D9BB2002BB1D08E
:102F00000029AFD0D36823F49073D360226853694B
:102F100023F001035361202384F83E300023236310
:102F20002268D36823F01003D3602046FFF7B5FE74
:102F300098E72046FFF78DFD94E72046FFF797FEC0
:102F400090E700BF8B2C0008034681628285C28512
:102F500000201864222283F83E2083F83C00196880
:102F6000CA6842F48072CA6019684A6942F0010274
:102F70004A611A68D36843F02003D360704708B5EC
:102F800090F83E30DBB2202B01D0022008BD71B199
:102F90007AB190F83C30012B01D1022008BD012309
:102FA00080F83C3000230363FFF7CEFF08BD01200B
:102FB00008BD012008BD000008B5044B1B6801F0E6
:102FC0008FFD012801D000F0CDF908BD10E000E030
:102FD000EFF305833BB9074B1B683BB90122054B57
:102FE0001A60002070476FF0050070474FF0FF3007
:102FF000704700BF58040020EFF3058373B90A4BF4
:103000001B68012B0DD110B50024084BDC77022280
:10301000054B1A6001F066FA204610BD6FF00500FE
:1030200070474FF0FF3070475804002000ED00E07B
:10303000F0B587B000240594EFF30584F4B9E8B146
:103040004AB31668946904B91824631E372B49D80B
:10305000536813F0010F47D1536993B14FEA930EB0
:1030600095682DB1D7685B2F02D9176907B1C3B92D
:1030700055B14FF0FF35012D1AD02DB3059807B08B
:10308000F0BD4FF0800EEBE7D36863B913696BB105
:103090004FF0FF35EFE7002518244FF0800E2E4645
:1030A000E9E70125E7E74FF0FF35E4E70025E2E730
:1030B000136992680292019300940B46724631465E
:1030C00001F0A2F90590D9E705AA019200940B46F8
:1030D0001FFA8EF2314601F0D1F90128CED000233B
:1030E0000593CBE70020CAE70020C8E7034B036045
:1030F000034B0B6080231360704700BFFC0300206C
:10310000FC010020034B0360034B0B604FF4807302
:10311000136070475C0800205C04002000F1080385
:1031200043604FF0FF328260C3600361002303609D
:10313000704700230361704743684B609A688A6058
:103140009A685160996008610368013303607047B1
:1031500030B40D68B5F1FF3F02D000F1080202E083
:10316000026904E01A4653681C68A542FAD2536803
:103170004B6099608A6051600861036801330360A5
:1031800030BC704703694268816891608268416819
:1031900051605A68904206D0002202611A68013AD2
:1031A0001A601868704782685A60F5E782B0002399
:1031B00001930D4B1B68B3F1FF3F08D04FF0500354
:1031C00083F31188BFF36F8FBFF34F8FFEE74FF08C
:1031D000500383F31188BFF36F8FBFF34F8F019BB1
:1031E000002BFCD002B0704708000020084800689F
:1031F000006880F308884FF0000080F3148862B6FE
:1032000061B6BFF34F8FBFF36F8F00DF00BF0000C9
:1032100008ED00E0DFF80C00016841F47001016086
:103220007047000088ED00E04FF0807340F8043CE8
:1032300021F0010140F8081C054B40F80C3C40F817
:10324000202C6FF0020340F8243C4438704700BF44
:10325000AD31000800000000000000000000000088
:10326000074B19680868B0E8F04F80F30988BFF38E
:103270006F8F4FF0000080F311887047AFF300802C
:10328000E04400204FF0500383F31188BFF36F8FA9
:10329000BFF34F8F0A4A136801331360012B0DD11E
:1032A000084B1B6813F0FF0F08D04FF0500383F357
:1032B0001188BFF36F8FBFF34F8FFEE7704700BFDA
:1032C0000800002004ED00E0094B1B6843B94FF0F3
:1032D000500383F31188BFF36F8FBFF34F8FFEE767
:1032E000013B034A13600BB983F31188704700BF99
:1032F00008000020000000000000000000000000A6
:10330000EFF30980BFF36F8F154B1A681EF0100F93
:1033100008BF20ED108A20E9F04F10602DE9090068
:103320004FF0500080F31188BFF34F8FBFF36F8FC2
:1033300001F0BCFA4FF0000080F3118809BC196855
:103340000868B0E8F04F1EF0100F08BFB0EC108A0C
:1033500080F30988BFF36F8F704700BFAFF3008021
:10336000E044002008B54FF0500383F31188BFF309
:103370006F8FBFF34F8F01F011F918B14FF08052EA
:10338000024B1A60002383F3118808BD04ED00E0AE
:10339000084A0023136008490B60084B1B68084962
:1033A000A1FB03139B09013B06490B600723136034
:1033B000704700BF10E000E018E000E00C000020C3
:1033C000D34D621014E000E03A4B1A683A4B9A422F
:1033D00008D14FF0500383F31188BFF36F8FBFF311
:1033E0004F8FFEE7334B1A68344B9A4208D14FF0A7
:1033F000500383F31188BFF36F8FBFF34F8FFEE746
:1034000010B582B02E4B1A78D2B20192FF221A70F8
:103410001B78DBB28DF803309DF8033003F05003C6
:10342000284A13700722284B1A6009E0264A1368BD
:10343000013B13609DF803305B00DBB28DF8033075
:103440009DF8033013F0800FF0D11F4B1B68032B46
:1034500008D04FF0500383F31188BFF36F8FBFF391
:103460004F8FFEE71B0203F4E063174A1360019BD2
:10347000DBB2134A1370154B1A6842F470021A60DB
:103480001A6842F070421A60FFF782FF0024104B66
:103490001C60FFF7BFFE0F4A136843F04043136000
:1034A000FFF7A4FE01F002FAFFF780FE204602B00B
:1034B00010BD00BF00ED00E071C20F4170C20F41AE
:1034C00000E400E0B8080020BC08002020ED00E087
:1034D0000800002034EF00E0EFF305830F2B0FD935
:1034E000104A9B5CDBB2104A1278934208D24FF02C
:1034F000500383F31188BFF36F8FBFF34F8FFEE745
:103500000A4B1B6803F4E063094A1268934208D926
:103510004FF0500383F31188BFF36F8FBFF34F8FCA
:10352000FEE77047F0E300E0B80800200CED00E093
:10353000BC080020124A12F0070F1ED0D11D21F046
:103540000701C1F5705313440A460E48026000217A
:1035500041601344083B23F007030B4803605960A4
:103560001960991A51601360084B1960084B196073
:103570004FF00042074B1A6070474FF47053E4E776
:10358000C4080020D8440020C0080020CC440020FB
:10359000C8440020C444002010B4134B1A6882426F
:1035A0001BD359685C18A04203D14068014459609C
:1035B000184641684418A24213D10C4C2468A24218
:1035C0000DD05268114441601A6812680260984236
:1035D00000D018605DF8044B70471346DEE70460C6
:1035E000F5E70260F3E700BFD8440020C0080020E0
:1035F00070B5044600F0C4FF3C4B1B68BBB13C4BAC
:103600001B681C4267D1ACB1083414F0070F11D00D
:1036100024F00704083404F007035BB14FF05003B3
:1036200083F31188BFF36F8FBFF34F8FFEE7FFF770
:1036300081FFE4E7002C50D02E4B1B689C424ED8F3
:103640002D4B1D6801E02B4615466A68944202D94D
:103650002A68002AF7D1254A1268954241D01E688F
:1036600008362A681A606B681B1B102B10D92819A2
:1036700010F0070F08D04FF0500383F31188BFF309
:103680006F8FBFF34F8FFEE743606C60FFF784FFDF
:103690006A6818490B689B1A0B60184909688B42C5
:1036A00001D216490B60124B1B6813436B60002359
:1036B0002B60134A13680133136000F0FBFF16F010
:1036C000070F10D04FF0500383F31188BFF36F8FB3
:1036D000BFF34F8FFEE70026EFE70026EDE7002659
:1036E000EBE70026E9E7304670BD00BFC0080020C8
:1036F000C4440020C8440020D8440020CC4400200A
:10370000D0440020002834D038B50446A0F1080584
:1037100050F8042C174909680A4208D14FF05003A9
:1037200083F31188BFF36F8FBFF34F8FFEE750F81D
:10373000080C40B14FF0500383F31188BFF36F8F33
:10374000BFF34F8FFEE722EA010244F8042C00F099
:1037500017FF54F8041C084A13680B4413602846EA
:10376000FFF71AFF054A13680133136000F0A2FF48
:1037700038BD7047C4440020C8440020D444002011
:10378000436A23B1036B1868C0F13800704700200A
:10379000704710B50446FFF775FDA26BE36B9A42C4
:1037A00004D00024FFF790FD204610BD0124F9E766
:1037B00010B50446FFF766FDA36B23B10024FFF7A5
:1037C00083FD204610BD0124F9E770B50446164676
:1037D000856B026C4AB9036853BB806801F0DCF961
:1037E0000023A3600135A56370BD6EB9406802F087
:1037F0001DFD226C636813446360A268934219D371
:10380000236863600020EDE7C06802F00FFD236CC1
:103810005B42E2681A44E26021688A4202D2A268EE
:103820001344E360022E07D145B1013D0020D9E7E2
:103830000020D7E70020D5E70020D3E70020D1E71C
:10384000026C72B110B50346C4681444C460806849
:10385000844201D31868D8600846D96802F0E6FCB3
:1038600010BD704738B50546FFF70CFD95F845408B
:1038700064B201E0013C64B2002C0ADD6B6A43B122
:1038800005F1240001F094F80028F3D001F022F9AA
:10389000F0E7FF2385F84530FFF716FDFFF7F2FC50
:1038A00095F8444064B201E0013C64B2002C0ADDAA
:1038B0002B6943B105F1100001F07AF80028F3D02C
:1038C00001F008F9F0E7FF2385F84430FFF7FCFC2E
:1038D00038BD000038B530B304460D46FFF7D2FCC2
:1038E0002168E26B236C03FB0210A0600020A06340
:1038F0006160013A02FB0313E360FF2384F8443064
:1039000084F84530C5B92369F3B104F1100001F022
:103910004FF8C8B14FF080520D4B1A60BFF34F8F74
:10392000BFF36F8F10E04FF0500383F31188BFF3A4
:103930006F8FBFF34F8FFEE704F11000FFF7EEFB30
:1039400004F12400FFF7EAFBFFF7BEFC012038BDBD
:1039500004ED00E038B51D46049C0B4649B92460CF
:10396000E063236401212046FFF7B4FF84F84C5044
:1039700038BD2260F4E740B94FF0500383F311885B
:10398000BFF36F8FBFF34F8FFEE710B584B00446CF
:1039900063B1A2B1A9B10120A8B94FF0500383F3DC
:1039A0001188BFF36F8FBFF34F8FFEE74FF05003C7
:1039B00083F31188BFF36F8FBFF34F8FFEE70120B2
:1039C000EAE70020E8E70AB901B1002040B94FF06A
:1039D000500383F31188BFF36F8FBFF34F8FFEE760
:1039E000502003900398502808D04FF0500383F3E1
:1039F0001188BFF36F8FBFF34F8FFEE720461C4641
:103A0000039B012384F8463000949DF81830FFF79B
:103A1000A1FF204604B010BD40B94FF0500383F31E
:103A20001188BFF36F8FBFF34F8FFEE7F0B583B000
:103A3000054617460E4601FB00F05030FFF7D8FD53
:103A4000044650B1002380F8463000903B4600F118
:103A5000500231462846FFF77DFF204603B0F0BDF7
:103A6000F0B585B0019260B1044699B10125BDB9A8
:103A70004FF0500383F31188BFF36F8FBFF34F8F65
:103A8000FEE74FF0500383F31188BFF36F8FBFF34E
:103A90004F8FFEE7026C0AB90125E8E70025E6E74B
:103AA000022B09D06DB94FF0500383F31188BFF397
:103AB0006F8FBFF34F8FFEE7E26B012AF2D0002534
:103AC000F0E71E460F4601F00BF810B9019B03B159
:103AD000002545B94FF0500383F31188BFF36F8F72
:103AE000BFF34F8FFEE700252CE0324639462046D3
:103AF000FFF76BFE636A8BB104F1240000F058FFFE
:103B000038B14FF08052374B1A60BFF34F8FBFF37D
:103B10006F8FFFF7D9FB012005B0F0BD0028F8D06A
:103B20004FF080522F4B1A60BFF34F8FBFF36F8F50
:103B3000EFE7FFF7C9FB0020EEE72046FFF792FE14
:103B400000F0B8FDFFF79EFBA26BE36B9A42CCD36B
:103B5000022ECAD0019B002BEBD01DB902A800F0A9
:103B60006DFF0125FFF7B0FB00F00AFDFFF78AFBB0
:103B700094F844305BB2B3F1FF3F02D1002384F8E4
:103B8000443094F845305BB2B3F1FF3F02D10023DB
:103B900084F84530FFF798FB01A902A800F05AFF0E
:103BA000C8B92046FFF7F5FD0028C6D0019904F1F9
:103BB000100000F0C9FE2046FFF754FE00F07AFD29
:103BC0000028BFD14FF08052064B1A60BFF34F8FD1
:103BD000BFF36F8FB6E72046FFF744FE00F06AFDA3
:103BE000002099E704ED00E02DE9F84360B10446B8
:103BF00099B10120B8B94FF0500383F31188BFF396
:103C00006F8FBFF34F8FFEE74FF0500383F31188A0
:103C1000BFF36F8FBFF34F8FFEE7006C08B9012031
:103C2000E8E70020E6E7022B09D068B94FF050031F
:103C300083F31188BFF36F8FBFF34F8FFEE7E56B00
:103C4000012DF2D00020F0E71F4690468946FFF78D
:103C500043FCEFF311864FF0500383F31188BFF359
:103C60006F8FBFF34F8FA26BE36B9A4201D3022F8A
:103C700022D194F845506DB2A36B3A46494620468E
:103C8000FFF7A3FDB5F1FF3F10D1636AB3B104F1B3
:103C9000240000F08DFE98B1B8F1000F12D0012081
:103CA000C8F8000086F31188BDE8F8836B1C5BB28E
:103CB00084F845300120F5E70020F3E70120F1E723
:103CC0000120EFE70120EDE760B170B50446036C19
:103CD0008BB14FF0500383F31188BFF36F8FBFF3A5
:103CE0004F8FFEE74FF0500383F31188BFF36F8FC0
:103CF000BFF34F8FFEE7036853B1012373B94FF051
:103D0000500383F31188BFF36F8FBFF34F8FFEE72C
:103D100083680BB90123F1E70023EFE70E46FFF7B5
:103D2000DBFBEFF311854FF0500383F31188BFF3F2
:103D30006F8FBFF34F8FA26BE36B9A421AD294F846
:103D400045305BB20132A263B3F1FF3F0CD1636A2D
:103D500093B104F1240000F02BFE78B186B101206C
:103D6000306085F3118870BD01335BB284F8453053
:103D70000120F6E70020F4E70120F2E70120F0E758
:103D80000120EEE7F0B585B0019260B1044699B12B
:103D90000125BDB94FF0500383F31188BFF36F8F36
:103DA000BFF34F8FFEE74FF0500383F31188BFF34B
:103DB0006F8FBFF34F8FFEE7036C0BB90125E8E768
:103DC0000025E6E70E4600F08BFE10B9019B03B11B
:103DD000002545B94FF0500383F31188BFF36F8F6F
:103DE000BFF34F8FFEE700272FE031462046FFF755
:103DF00027FD013DA563236963B104F1100000F0C4
:103E0000D7FD38B14FF08052344B1A60BFF34F8F5B
:103E1000BFF36F8FFFF758FA012005B0F0BDFFF731
:103E200053FA0020F9E702A800F008FE012716E087
:103E3000002384F844301EE0002384F8453020E05D
:103E40002046FFF70FFD00F035FCFFF71BFAA56BCE
:103E5000002DCAD1019B002BE1D0002FE3D0FFF74A
:103E600033FA00F08DFBFFF70DFA94F844305BB2A3
:103E7000B3F1FF3FDCD094F845305BB2B3F1FF3FC4
:103E8000DAD0FFF721FA01A902A800F0E3FDC8B9D2
:103E90002046FFF78DFC0028D2D0019904F12400C0
:103EA00000F052FD2046FFF7DDFC00F003FC002887
:103EB000CBD14FF08052094B1A60BFF34F8FBFF345
:103EC0006F8FC2E72046FFF7CDFC00F0F3FB2046E2
:103ED000FFF76EFC0028B8D000209EE704ED00E05C
:103EE00070B584B0019158B10446036C8BB14FF0AA
:103EF000500383F31188BFF36F8FBFF34F8FFEE73B
:103F00004FF0500383F31188BFF36F8FBFF34F8FD0
:103F1000FEE700F0E5FD60B9019B63B9012363B9D9
:103F20004FF0500383F31188BFF36F8FBFF34F8FB0
:103F3000FEE70123F3E70023F1E700252E464EE0DC
:103F4000013BA363236813B900F0BEFEA0602369A0
:103F500063B104F1100000F02BFD38B14FF0805236
:103F6000474B1A60BFF34F8FBFF36F8FFFF7ACF96A
:103F70000125284604B070BD45B14FF0500383F3CE
:103F80001188BFF36F8FBFF34F8FFEE7FFF79CF9E8
:103F9000EFE702A800F052FD01262AE0002384F892
:103FA000443032E0002384F8453034E0FFF76AF90A
:103FB000A06800F0A5FD0546FFF786F93BE0204626
:103FC000FFF750FC00F076FB09E02046FFF74AFCC3
:103FD00000F070FB2046FFF7EBFB002840D1FFF715
:103FE00051F9A36B002BABD1019B002BC4D0002E49
:103FF000CFD0FFF769F900F0C3FAFFF743F994F85F
:1040000044305BB2B3F1FF3FC8D094F845305BB2A7
:10401000B3F1FF3FC6D0FFF757F901A902A800F09E
:1040200019FD0028D1D12046FFF7C2FB0028C6D0D9
:104030002368002BBAD0019904F1240000F084FC1D
:104040002046FFF70FFC00F035FB0028C7D14FF0EA
:1040500080520B4B1A60BFF34F8FBFF36F8FBEE7D9
:10406000002D86D0FFF70EF92046FFF789FB0146A9
:10407000A06800F0D9FDFFF727F9002579E700BF18
:1040800004ED00E00023072B0CD8074A52F8332038
:104090000AB10133F7E7044A42F8331002EBC303D5
:1040A00058607047704700BF1C4B002070B5044635
:1040B0000D461646FFF7E6F894F844305BB2B3F1CC
:1040C000FF3F0DD094F845305BB2B3F1FF3F0BD00A
:1040D000FFF7FAF8A36B5BB12046FFF7C3FB70BD97
:1040E000002384F84430EDE7002384F84530EFE7FF
:1040F0003246294604F1240000F03EFCECE70000C3
:10410000084B1B681B683BB1064B1B68DB68DB6810
:104110005A68054B1A6070474FF0FF32024B1A6025
:10412000704700BFE4440020884900202DE9F04793
:1041300081460D4617469A46089EDDF824800A9C63
:104140009200A521206B02F07CF8236B07F18042DE
:10415000013A03EB820727F0070785B300230F2BF3
:1041600007D8E95CE21882F83410EA5C0AB101333E
:10417000F5E7002384F84330372E00D93726E6626E
:10418000E66400252565201DFEF7D3FF04F1180025
:10419000FEF7CFFF2461C6F13806A661646265654B
:1041A00084F85850524649463846FFF73DF820609B
:1041B000B8F1000F01D0C8F80040BDE8F087002337
:1041C00084F83430D8E7000038B5002407E004EB69
:1041D000840293000E481844FEF7A0FF0134372CE8
:1041E000F5D90C4D2846FEF799FF0B4C2046FEF7FB
:1041F00095FF0A48FEF792FF0948FEF78FFF09482E
:10420000FEF78CFF084B1D60084B1C6038BD00BFDB
:10421000EC440020604900207449002094490020AB
:10422000C0490020AC490020E4440020E8440020BC
:1042300010B50446FFF726F8214A136801331360CE
:10424000204B1B68002B32D01F4B1B683BB91D4B0A
:104250001B68DA6AE36A9A4201D81A4B1C601B4A4F
:104260001368013313606364E36A194A1268934266
:1042700001D9174A136003EB83039A00211D1548E7
:104280001044FEF759FFFFF71FF80F4B1B686BB187
:104290000C4B1B68DA6AE36A9A4207D24FF08052ED
:1042A0000D4B1A60BFF34F8FBFF36F8F10BD054BDF
:1042B0001C601368012BD2D1FFF786FFCFE700BF48
:1042C0004C490020E0440020A84900205849002023
:1042D0005C490020EC44002004ED00E010B50446E9
:1042E00090F8593063B1012B11D0022B12D04FF04E
:1042F000500383F31188BFF36F8FBFF34F8FFEE737
:10430000006BFFF7FFF92046FFF7FCF910BDFFF740
:10431000F9F910BD10BD00000F4B1B68D3B110B5EB
:10432000FEF7B0FF0D4BDB68DC68201DFEF72AFFAF
:104330000B4A1368013B1360074A1368013B136083
:10434000FEF7C2FF2046FFF7C9FF034B1B68002B97
:10435000E6D110BD704700BF50490020C049002081
:104360004C49002008B5FFF7D7FF064B1B68012B0F
:10437000F9D94FF08052044B1A60BFF34F8FBFF34F
:104380006F8FF0E7EC44002004ED00E070B50446C8
:104390000E46174B1D68174B18680430FEF7F2FEE7
:1043A000B4F1FF3F13D02C44124B1B685C60A54254
:1043B00016D8114B18680F4B19680431FEF7C8FE68
:1043C0000E4B1B689C4201D20C4B1C6070BD002E32
:1043D000E9D0084B196804310948FEF7ADFE70BDFD
:1043E000084B1868034B19680431FEF7B1FE70BD25
:1043F000D4490020E0440020E44400208849002003
:10440000AC490020E844002070B586B00B9D0C9CA0
:1044100075B1B4B15C260496049E5C2E1AD04FF0A0
:10442000500383F31188BFF36F8FBFF34F8FFEE705
:104430004FF0500383F31188BFF36F8FBFF34F8F9B
:10444000FEE74FF0500383F31188BFF36F8FBFF384
:104450004F8FFEE7049E2563022584F859500025FE
:104460000395029405AD01950A9D0095FFF75EFE48
:104470002046FFF7DDFE059806B070BD2DE9F0433C
:1044800085B006460F46154698469000FFF7B0F8EF
:1044900010B381465C20FFF7ABF80446C0B1C0F80A
:1044A0003090DCB1002384F85930039302940D9BC3
:1044B00001930C9B009343462A4639463046FFF74A
:1044C00035FE2046FFF7B4FE012005B0BDE8F083BD
:1044D0004846FFF717F9E4E70024E2E74FF0FF3022
:1044E000F3E7000010B588B000240594069407AAED
:1044F00006A905A8FEF7FAFD059B0293069B01930A
:1045000000942346079A19491948FFF77DFF48B1DF
:104510000120012808D0012809D0B0F1FF3F1BD0AD
:1045200008B010BD0020F4E700F048FCF3E74FF0BE
:10453000500383F31188BFF36F8FBFF34F8F4FF09A
:10454000FF320C4B1A6001220B4B1A6000220B4BFE
:104550001A60FEF739FFE3E74FF0500383F3118849
:10456000BFF36F8FBFF34F8FFEE700BFE47D0008FE
:104570006543000888490020A8490020D44900204C
:10458000024A136801331360704700BF544900208A
:10459000014B1868704700BFD4490020F8B53A4B6A
:1045A0001B68002B69D1394B1D6801351D60C5B9E9
:1045B000374B1B681B6843B14FF0500383F31188DE
:1045C000BFF36F8FBFF34F8FFEE7314A1168314B56
:1045D000186810601960304A136801331360FFF7E0
:1045E0008FFD2E4B1B689D423DD200242C4B1B6837
:1045F000DB6A03EB83039A002A4B9B58012B00D9FB
:104600000124294B1B68002B3CD001243AE00124F3
:104610001F4B1B681B6843B31D4B1B68DB68DE68C0
:1046200073689D4226D3371D3846FEF7ABFDB36A4B
:104630001BB106F11800FEF7A5FDF36A1B4A1268CC
:10464000934201D9194A136003EB83039A00394658
:1046500014481044FEF770FDF26A114B1B68DB6AC8
:104660009A42D4D2D4E70024D2E74FF0FF320B4B6A
:104670001A60BBE7094A1360B8E70D4A13680133B3
:10468000136000242046F8BD54490020D44900207E
:10469000E4440020E84400208C49002088490020A0
:1046A000E0440020EC440020D84900205C49002070
:1046B0009049002038B5354B1B6843B94FF0500383
:1046C00083F31188BFF36F8FBFF34F8FFEE7FEF7C1
:1046D000D9FD2E4B1A68013A1A601B68002B50D185
:1046E0002B4B1B6823B90024FEF7EEFD204638BD96
:1046F0000024284B1B681BB3264BDB68DC6804F1E5
:104700001800FEF73FFD251D2846FEF73BFDE36A36
:10471000214A1268934201D91F4A136003EB8303B5
:104720009A0029461D481044FEF706FDE26A1C4B1C
:104730001B68DB6A9A42DCD301221A4B1A60D8E765
:104740000CB1FFF7DDFC184B1C6874B9154B1B68E6
:10475000CBB14FF08052154B1A60BFF34F8FBFF3B0
:104760006F8F0124C0E7013C07D0FFF717FF002837
:10477000F9D001220B4B1A60F5E700220A4B1A60B0
:10478000E4E70024B0E70024AEE700BF544900206E
:104790004C490020944900205C490020EC44002052
:1047A000E0440020D84900209049002004ED00E0BA
:1047B00038B550B1054689B94FF0500383F31188DD
:1047C000BFF36F8FBFF34F8FFEE74FF0500383F3BC
:1047D0001188BFF36F8FBFF34F8FFEE71C4B1B6831
:1047E00043B14FF0500383F31188BFF36F8FBFF3D2
:1047F0004F8FFEE70C46FFF7C3FE164B18682A687A
:104800001444904216D2A2421AD9A0421AD30022CE
:104810002C601AB10021201AFFF7B8FDFFF74AFFFC
:1048200038B94FF080520C4B1A60BFF34F8FBFF373
:104830006F8F38BDA24207D8A04207D30022E7E716
:104840000022E5E70122E3E70122E1E70122DFE7B9
:1048500054490020D449002004ED00E010B5A8B16F
:104860000446104B1B6843B14FF0500383F311888B
:10487000BFF36F8FBFF34F8FFEE7FFF781FE00217D
:104880002046FFF783FDFFF715FF00E0002038B951
:104890004FF08052044B1A60BFF34F8FBFF36F8FFE
:1048A00010BD00BF5449002004ED00E0214B1B68FF
:1048B0006BB90022204B1A60204B1B6803EB83016D
:1048C0008A001F498A587AB92BB1013BF6E70122C9
:1048D000194B1A6070474FF0500383F31188BFF3F0
:1048E0006F8FBFF34F8FFEE710B408469A00D418BD
:1048F000A10001444C6864684C601A44910008317E
:10490000084484420DD003EB830291000C4A0A4410
:104910005268D1680B4A1160084A13605DF8044B75
:104920007047606803EB83029100054A0A445060B7
:10493000E9E700BF54490020D84900205C49002025
:10494000EC440020E044002040B94FF0500383F3D2
:104950001188BFF36F8FBFF34F8FFEE710B50C4682
:10496000044B19681831FEF7F3FB01212046FFF7CD
:104970000DFD10BDE044002038B570B10C46154661
:104980000A4A11681831FEF7D7FB0DB14FF0FF341A
:1049900029462046FFF7FAFC38BD4FF0500383F359
:1049A0001188BFF36F8FBFF34F8FFEE7E044002005
:1049B00038B5C368DC6824B304F118052846FEF74F
:1049C000E1FB184B1B682BBB251D2846FEF7DAFBC5
:1049D000E36A154A1268934201D9134A136003EB44
:1049E00083039A00294611481044FEF7A5FBE26AAA
:1049F0000F4B1B68DB6A9A4211D901200D4B1860DE
:104A000038BD4FF0500383F31188BFF36F8FBFF3AE
:104A10004F8FFEE729460848FEF78EFBE7E70020A8
:104A200038BD00BF544900205C490020EC44002000
:104A3000E0440020D849002094490020034B1B6823
:104A40000360034B1B684360704700BF8C49002024
:104A5000D4490020F8B5E0B1054619B30C46FEF77D
:104A600011FC1A4B18686968421A2368B3F1FF3FBA
:104A700028D02F68164E3668B74201D0884223D21C
:104A80009A4218D3002323600124FEF71DFC204620
:104A9000F8BD4FF0500383F31188BFF36F8FBFF35E
:104AA0004F8FFEE74FF0500383F31188BFF36F8FF2
:104AB000BFF34F8FFEE79B1A23602846FFF7BEFF28
:104AC0000024E2E70024E0E70124DEE7D4490020E7
:104AD0008C4900200122014B1A607047D849002000
:104AE000054B1B6823B1054B1B681BB9022070479F
:104AF0000120704700207047A84900205449002039
:104B0000002840D038B50546C26A20490968C96AFC
:104B10008A422ED28169002905DB1C490968C96ACD
:104B2000C1F138018161686902EB82029100184A83
:104B30000A44904205D0154A1268D26AEA620120FE
:104B400038BD2C1D2046FEF71DFB104B1B68DB6A91
:104B5000EB62104A1268934201D90E4A136003EBCC
:104B600083039A0021460A481044FEF7E5FA012023
:104B700038BDC26C054B1B68DB6A9A4201D201202A
:104B800038BD002038BD0020704700BFE044002041
:104B9000EC4400205C490020002839D038B5044698
:104BA0001E4A1268904208D04FF0500383F31188D8
:104BB000BFF36F8FBFF34F8FFEE7026D42B94FF027
:104BC000500383F31188BFF36F8FBFF34F8FFEE75E
:104BD000013A0265C06AE16C88421BD0E2B9251D2A
:104BE0002846FEF7CFFAE36CE362C3F13802A26114
:104BF0000B4A1268934201D9094A136003EB8303FD
:104C00009A00294607481044FEF796FA012038BD5D
:104C100000207047002038BD002038BDE04400204F
:104C20005C490020EC440020002846D038B50446FA
:104C3000006D40B94FF0500383F31188BFF36F8FBD
:104C4000BFF34F8FFEE7E26C8A4200D20A46E16A68
:104C50008A4201D0012800D038BD1848006884423B
:104C600008D14FF0500383F31188BFF36F8FBFF368
:104C70004F8FFEE7E262A069002802DBC2F1380232
:104C8000A261636901EB810188000D4A02449342ED
:104C9000E2D1251D2846FEF775FAE36A094A126833
:104CA000934201D9074A136003EB83039A00294614
:104CB00003481044FEF740FACEE77047E044002076
:104CC000EC4400205C490020054B1B6823B1044BD9
:104CD0001A68136D01331365014B1868704700BFE4
:104CE000E0440020064B1A6813682BB901230360C7
:104CF00023B9D368186870470023F8E7002070478D
:104D0000DC49002008B54160006191420CD8D21AFC
:104D100083699A4201D3012008BD011D094B18681F
:104D2000FEF716FA002008BD9A4201D2994206D237
:104D3000011D054B1868FEF70BFA002008BD012085
:104D400008BD00BFE0490020DC49002030B583B039
:104D5000FEF798FA114B1B681BB1FEF7B5FA03B0CA
:104D600030BD0F4D2846FEF7D9F90E4C2046FEF710
:104D7000D5F90D4B1D600D4B1C60002300930C4BAF
:104D80000C4A10210A20FEF7F6FD044B186000289B
:104D9000E3D00949FFF776F9DFE700BF004B0020B9
:104DA000844A0020984A0020DC490020E049002085
:104DB000B04A0020E4490020EC7D000810B588B01E
:104DC000FFF7C4FF154B1B681BB300240594069422
:104DD00007AA06A905A8FEF795F9059B0293069B6D
:104DE0000193022300932346079A0D490D48FFF7CC
:104DF0000BFB0D4B186050B1012060B94FF0500310
:104E000083F31188BFF36F8FBFF34F8FFEE7204608
:104E1000F3E70020F1E708B010BD00BF004B002011
:104E2000F47D000831510008044B0020C0B130B5BA
:104E300085B015460446174A106840B31A460091DB
:104E40000195029405291CDCFFF74AFE022810D0C8
:104E500000231A4669460F480068FEF701FE14E079
:104E60004FF0500383F31188BFF36F8FBFF34F8F61
:104E7000FEE70023089A694606480068FEF7F0FD41
:104E800003E000236946FEF7AFFE05B030BD002009
:104E9000FBE700BF004B002070B582B01B4B1B68C6
:104EA0001A6862B3DB681E68DC68251D2846FEF7B9
:104EB00069F9236A2046984794F8283013F0040FC4
:104EC000ECD0A36933449E4207D263602461294633
:104ED0000E4B1868FEF73CF9E0E7002100910B4605
:104EE00032462046FFF7A2FF0028D7D14FF05003EB
:104EF00083F31188BFF36F8FBFF34F8FFEE7044A30
:104F0000106802490860136002B070BDDC490020DF
:104F1000E049002038B50546FFF73AFB0446074B49
:104F20001B68984205D300232B60044B1C6020466D
:104F300038BDFFF7B1FF01232B60F6E7AC4A002034
:104F400070B582B005460E46174B1B68DB68DC68FF
:104F5000201DFEF717F994F8283013F0040F08D13C
:104F600023F0010384F82830236A2046984702B0D2
:104F700070BDA1692B46324629442046FFF7C2FE88
:104F80000028F1D0002100910B462A462046FFF769
:104F90004DFF0028E8D14FF0500383F31188BFF391
:104FA0006F8FBFF34F8FFEE7DC49002070B582B0F2
:104FB00006460C46FFF7E4FA01A8FFF7ABFF019B9A
:104FC0002BBB05460CB9B04218D224B1114B1B685B
:104FD0001B68D3B901242246711B0F4B1868FFF7D9
:104FE00065F8FFF767FB38B94FF080520B4B1A603A
:104FF000BFF34F8FBFF36F8F02B070BDFFF75AFB47
:1050000029463046FFF79CFFF6E70024E3E7FFF769
:1050100051FBF1E7E0490020004B002004ED00E0E7
:1050200030B589B002E0049B002B0FDA002204A9FE
:105030003E4B1868FEF7A6FE002874D0049B002B98
:10504000F1DA07990698059B9847ECE7069C636997
:1050500013B1201DFEF796F803A8FFF75BFF049B32
:10506000092BE3D8DFE803F00505053138510505C4
:10507000313894F8283043F0010384F8283005993A
:10508000A5690B46024629442046FFF73BFE00284F
:10509000CCD0236A2046984794F8283013F0040FA8
:1050A000C4D0A269002100910B4605980244204615
:1050B000FFF7BCFE0028B9D14FF0500383F31188ED
:1050C000BFF36F8FBFF34F8FFEE794F8283023F0C4
:1050D000010384F82830A9E794F8283043F001034D
:1050E00084F828300599A16131B103460246014494
:1050F0002046FFF707FE99E74FF0500383F311882E
:10510000BFF36F8FBFF34F8FFEE794F8283013F093
:10511000020F04D023F0010384F8283086E72046EC
:10512000FEF7F0FA82E709B030BD00BF004B002067
:1051300000B583B001A8FFF7D5FD0199FFF736FF51
:10514000FFF76EFFF6E70000F0B583B000268DF89C
:1051500007608DF806608DF804608DF80560394DA4
:105160002860C46801230DF106020721407AA04798
:1051700004462868076901230DF107023146407A89
:10518000B84754FA80F4E4B228689DF807300370F9
:10519000066901230DF107021946407AB04754FA17
:1051A00080F4E4B228689DF8073043710669012352
:1051B0000DF107020221407AB04754FA80F4E4B2BC
:1051C00028689DF807308371066901230DF10702F5
:1051D0000321407AB04754FA80F4E4B228689DF87D
:1051E0000730C371066901230DF107020621407AD9
:1051F000B04754FA80F4E4B228689DF8073003728F
:105200000669022301AA0421407AB04754FA80F4C7
:10521000E4B228689DF805209DF8043043EA022393
:105220004380066901230DF107020721407AB04748
:1052300054FA80F02B689DF807201A7140B203B031
:10524000F0BD00BF084B002038B5064B1C6834B1D8
:1052500013460A460146E568607AA84738BD6FF0F4
:105260007E0038BD084B002070B582B000238DF859
:105270000730134B1C68E4B10546266901230DF184
:1052800007020721607AB0470446A8B902AA02F8CB
:10529000015D0B4B1868C66801230721407AB047AF
:1052A00054FA80F040B210B9054B1B681D7102B072
:1052B00070BD6FF07E00FAE74FF0FF30F7E700BFF8
:1052C000084B002030B583B000230093ADF80430C4
:1052D0001A4B1B6863B304461B792BBB4FF0FF309E
:1052E00018B1164B1B681B792BBB144B186805694A
:1052F00006236A461A21407AA8479DF901209DF8A5
:10530000003043EA022323809DF903209DF80230F8
:1053100043EA022363809DF905209DF8043043EAA7
:105320000223A38003B030BD0020FFF79DFFD7E725
:105330006FF07E00F6E74FF0FF30F3E7084B0020F8
:1053400070B582B000238DF80730134B1B68EBB1AA
:1053500005461B79B3B94FF0FF3018B10E4B1B68EF
:105360001B79B3B90C4B1C68266901230DF10702A8
:105370003D21607AB0479DF8073003F00F032B7092
:1053800002B070BD0020FFF76FFFE6E76FF07E0010
:10539000F6E74FF0FF30F3E7084B002070B582B01E
:1053A00000238DF807308DF80630424B1B68002B28
:1053B0007AD005460DF10600FFF7C2FF002876D12E
:1053C0009DF8063043BB3B4B1868046901230DF17F
:1053D00007023D21407AA047044610B1204602B0A2
:1053E00070BD9DF8070020F00F0043B205F00F00DC
:1053F000184302AA02F8010D2E4D2868C668012341
:105400003D21407AB04754FA80F464B22B685B695E
:105410004FF416709847E1E7264B1868046901239A
:105420000DF107023D21407AA047044640B3002D0C
:10543000D4D0204B1868046901230DF107023D21E7
:10544000407AA04704460028C8D19DF8070020F004
:105450000F0043B205F00F00184302AA02F8010D35
:10546000144D2868C66801233D21407AB04754FA9C
:1054700080F464B22B685B694FF416709847ADE70F
:105480009DF8073003F0F00302A901F8013D012265
:105490003D20FFF7D9FE54FA80F464B2054B1B6837
:1054A0005B6914209847C2E76FF07E0496E74FF0DF
:1054B000FF3493E7084B002030B583B000238DF80C
:1054C00007308DF80630254B1B68002B42D005466F
:1054D0000DF10600FFF734FF044668BB9DF8063067
:1054E0001BB944B14FF0FF3428E0FFF757FF54FADF
:1054F00080F464B2F5E7194B1868046901230DF1D3
:1055000007023E21407AA0470446B8B99DF807003B
:1055100020F0030043B205F00300184302AA02F88A
:10552000010D0E4B1868C56801233E21407AA8473B
:1055300054FA80F464B201E04FF0FF349DF80600A5
:1055400010B9204603B030BDFFF728FF54FA80F4AD
:1055500064B2F6E76FF07E04F3E700BF084B00206B
:1055600010B582B08DF80010002106E0481C545C94
:1055700002A9014401F8084CC1B29942F6D34B1C70
:105580006A4650210848FBF781FC6421074B1868E4
:10559000FEF7A6FCC0B2012802D1002002B010BD67
:1055A0004FF0FF30FAE700BF884B0020784B002017
:1055B00030B583B014461D460023009301938DF847
:1055C000001001236A4650211048FBF75FFC64215C
:1055D0000F4B1868FEF784FCC0B280B12B46224600
:1055E00050210A48FBF7BEFC64210A4B1868FEF7FD
:1055F00077FCC0B2012805D1002003B030BD4FF0C8
:10560000FF30FAE74FF0FF30F7E700BF884B00208C
:10561000784B00205C4B002008B5FFF71FF908BD50
:1056200000B583B002A9002341F8043D084B186877
:10563000FEF74AFB019B3BB14FF08052054B1A60CD
:10564000BFF34F8FBFF36F8F03B05DF804FB00BF54
:10565000784B002004ED00E000B583B002A90023E0
:1056600041F8043D084B1868FEF72EFB019B3BB147
:105670004FF08052054B1A60BFF34F8FBFF36F8F0F
:1056800003B05DF804FB00BF5C4B002004ED00E0BC
:10569000054B064ADA60064A1A61064A5A61282210
:1056A0005A720020704700BF604B0020615500080F
:1056B000B15500081956000830B58BB00024059488
:1056C00006940794089409940194274B1A6B42F0AE
:1056D00004021A631A6B02F004020192019A029406
:1056E0001A6B42F080021A631A6B02F08002029277
:1056F000029A03941A6B42F001021A631A6B02F0C9
:1057000001020392039A04941A6B42F002021A6394
:105710001B6B03F002030493049B144D22464FF4C9
:1057200090712846FBF707F94FF400530593104B8F
:105730000693079405A90F48FBF71CF84FF49073E4
:105740000593012306930794089405A92846FBF7BF
:1057500011F84FF4806305930694079405A9284631
:10576000FBF708F80BB030BD0038024000000240E3
:10577000000021100008024008B50848084B0360EB
:105780004FF4E133436000238360C36003610C2264
:1057900042618361C361FDF717FA08BD844C0020A4
:1057A0000044004008B50948094B0360094B4360B9
:1057B00000238360C3604FF48042026143618361D0
:1057C000C3610362FBF788FA08BD00BF884B002065
:1057D00000540040A086010030B58BB0002408942E
:1057E00009940194029403940494059406940794F4
:1057F000124D4FF080432B6050236B60AC6044F639
:105800002063EB602C61AC612846FCF778FF0894BC
:10581000099408A92846FDF7C5F86023019340F2D2
:10582000DC53029303940594082201A92846FCF74F
:10583000C3FF284600F08EFB0BB030BD3C4C00206F
:1058400030B58BB000240894099401940294039419
:105850000494059406940794124D134B2B60502327
:105860006B60AC6044F62063EB602C61AC61284651
:10587000FCF745FF0894099408A92846FDF792F81B
:105880006023019340F2DC53029303940594224673
:1058900001A92846FCF790FF284600F05BFB0BB0FF
:1058A00030BD00BFE44B00200004004000B583B0D1
:1058B000FEF76EFE0190142101A8FEF779FFFAE7CA
:1058C00000B583B0FEF764FE0190642101A8FEF7E5
:1058D0006FFF4FF400510548FBF726F80028F4D17C
:1058E00020210348FBF72DF8EFE700BF0008024036
:1058F0000000024000B583B0032200210120FEF722
:105900008BF8124B1860032200210120FEF784F867
:105910000F4B186001224FF480710E48FBF70BF813
:10592000FFF7B6FE0C48FFF70FFC0020FFF7C4FDA1
:105930000C20FFF733FDFEF72BFE01900748FFF721
:10594000C1FC0A2101A8FEF733FFF7E75C4B0020FA
:10595000784B002000000240604B0020C84C002023
:1059600000B59BB001A9044801F01EF801A9034845
:1059700000F0F2FFF6E700BFFC7D0008007E0008A3
:1059800030B595B03022002108A800F05AFC002460
:105990000394049405940694079401941B4B1A6C89
:1059A00042F080521A641B6C03F080530193019BF8
:1059B0000294174A136823F4404343F400431360EE
:1059C000136803F440430293029B022508950123C8
:1059D0000B9310230C930E950F9410934FF4A87310
:1059E0001193042312930723139308A8FCF730F9AB
:1059F0000F230393049505944FF480530693079463
:105A0000294603A8FCF78AFB15B030BD00380240D8
:105A10000070004000B5A5B0FAF7BAFDFFF7B0FF7F
:105A2000FFF74AFEFFF7A8FEFFF7BCFEFFF7D4FE24
:105A3000FFF706FF354800F069F908213448FCF704
:105A400035FF00213348FCF731FFFDF7C1FA324A38
:105A500000213248FDF7ECFA314B1860242632461B
:105A600000211BA800F0EDFB2E4B1B934FF40065AB
:105A70002095182421941BAA00212B48FDF7D8FA61
:105A80002A4B18603246002112A800F0DAFB284B9E
:105A900012931795189412AA00212648FDF7C8FA08
:105AA000254B1860324600210DEB060000F0C9FBC3
:105AB000224B09930E950F940DEB0602002120480E
:105AC000FDF7B6FA1F4B186032460021684600F019
:105AD000B8FB1D4B0093059506946A4600211B48B0
